:020000040800F2
:1000000000000220CD0100081902000819020008B2
:100010001902000819020008190200080000000077
:1000200000000000000000000000000019020008AD
:100030001902000800000000190200081902000857
:100040001902000819020008190200081902000824
:100050001902000819020008190200081902000814
:100060001902000819020008190200081902000804
:1000700019020008190200081902000819020008F4
:1000800019020008190200081902000819020008E4
:1000900019020008190200081902000819020008D4
:1000A00019020008190200081902000819020008C4
:1000B00019020008190200081902000819020008B4
:1000C00019020008190200081902000819020008A4
:1000D0001902000819020008190200081902000894
:1000E0001902000819020008190200081902000884
:1000F0001902000819020008190200081902000874
:100100001902000819020008190200081902000863
:100110001902000819020008190200081902000853
:100120001902000819020008190200081902000843
:100130001902000819020008190200081902000833
:100140001902000819020008190200081902000823
:100150001902000819020008190200081902000813
:100160001902000819020008190200081902000803
:100170001902000819020008190200080000000016
:08018000190200081902000831
:1001880010B5054C237833B9044B13B10448AFF3C9
:1001980000800123237010BD000000200000000033
:1001A8006402000808B5034B1BB103490348AFF3C9
:1001B800008008BD00000000040000206402000860
:1001C800FEE70000DFF830D00C480D490D4A002347
:1001D80002E0D458C4500433C4188C42F9D30A4AF4
:1001E8000A4C002301E013600432A242FBD300F062
:1001F80011F8FFF7E5FF704700000220000000201B
:100208000000002084020008000000201C000020DC
:10021800FEE7000070B50D4D0D4C641BA4100026C0
:10022800A64209D10B4D0C4C00F018F8641BA41021
:100238000026A64205D170BD55F8043B9847013603
:10024800EEE755F8043B98470136F2E77C020008D0
:100258007C0200087C02000880020008F8B500BF94
:10026800F8BC08BC9E467047F8B500BFF8BC08BC8F
:040278009E467047E7
:04027C00AD010008C8
:0402800089010008E8
:04000005080001CD21
:00000001FF
